:400000000080002011000000010500000105000008B5044B1A6803F53F5302331A6000F077FA00BFFA46004010B5054C237833B9044B13B10448AFF300800123237010BDFA
:400040005881FF1F00000000D80F0000084B10B51BB108490848AFF300800848036803B910BD074B002BFBD0BDE81040184700BF000000005C81FF1FD80F0000C880FF1F14
:400080000000000008B50122024B1A7000F0BEFA08BD00BF7481FF1F08B53F22304B1A70012809D14FF400722E492F4800F080FF00222E4B1A804EE0022809D14FF40072F6
:4000C0002B49294800F074FF0022284B1A8042E0032809D14FF400722649234800F068FF0022224B1A8036E0042810D14FF480722149224800F05CFF4FF4007220491A485C
:4001000000F056FF40F2FF72184B1A8023E0052810D14FF480721849184800F049FF4FF400721849104800F043FF40F2FF720F4B1A8010E0062806D14FF4007212490A480D
:4001400000F036FF07E0072805D14FF400720F49054800F02DFF0022014B1A7008BD00BF8CC70040E420000000C200409481FF1FE41E0000E41A0000E417000000C50040B0
:40018000E4180000E4130000E4110000E40F000008B500F019FA144B1870A0F13103042B21D8DFE803F003090F151B0000F022FA0120FFF771FF08BD00F01CFA0220FFF755
:4001C0006BFF08BD00F016FA0320FFF765FF08BD00F010FA0420FFF75FFF08BD00F00AFA0520FFF759FF08BD9281FF1F10B582B01A4B186800901B798DF80430184800F0F1
:4002000027FA184800F08AFE62B600F019FC00F061FD00F0ADFD00F0D5FA052269460B2000F08CFA00F0A6FA0F4B1B7813F0FF0FFAD000F0F7FA00F0E3FA0C4C02212046A3
:4002400000F0A2FA6078237803EB002080B200F09DFD0022044B1A70E6E700BFDC0F000085000000910100007481FF1F9081FF1FFEE700BFF0B40022174611E050F8276063
:40028000F3B226F0FF0608E001EB420511F812406D78A5550132013BDBB2002BF4D101371C2FEBD9F0BC70470C4B1B78DBB203F007010B4A11701B09013213700222094BF9
:4002C0001A70202203F69B031A700122AD331A706622A3F2CF231A70704700BFCF0100496E580040FD51004008B50A46002100F06AFE08BD38B50522294B1A801823294AAD
:4003000013705F2102321180023213704FF49C7102321180023213700222234B1A7008224FF040231A70032103F5007319701F4B1B78DBB21E490B701E4B1A8041F25122D3
:40034000023B1A80002419250CE01B4B1B7803F0010343EA440404F003044FF4F07000F0EBFD013D0DB1032CEFD115B90320FFF77FFF124B4FF480721A8007221A7000222C
:400380000F490A704820023108701A700222033B1A700C4A137843F00703137038BD00BF80400040824000400043004008010049A1460040224200402542004004400040C0
:4003C00006400040A243004008B500F0F1FD08BD38B572B6384A137843F00403137000240CE0364D630019194A0011462A44084691882858FFF778FF0134E4B2082CF0D9C0
:4004000000240CE02D48A20011194B000344B3F84020D96B986BFFF7D7FF0134E4B2012CF0D927494FF09040FFF724FF04212548FFF75AFF244A137843F00203137010328B
:40044000137843F002031370204C237843F040032370A2F58632513A137843F01003137008221B491B48FFF7AFFF08221A491B48FFF7AAFF08221A491A48FFF7A5FF0A221F
:4004800019491A48FFF7A0FF194A137843F008031370184D61232B70FFF72CFF81232B700122154B1A70FFF7FFFE0E2221461348FFF78AFF38BD00BFE8460040E4220000B7
:4004C000740000480076004003500140A04300409C050048F2510040A405004812510040AC05004822510040B405004830510040224300400048004004000840B0430040B9
:4005000008B500F029FD03680C2B00D1FEE7FEE708B5104E104D16E029686B68AC68002204E051F8040B43F8040B0432A242F8D1E868002203E0002143F8041B0432824270
:40054000F9D11035013E002EE6D100F00BFDFFF74DFEFEE7010000005823000008B5114A114B1A60114A136843F40073136000230AE0032B03D80E4A52F8231000E00D49AC
:400580000D4A42F8231001332F2BF2D90B4B1A780B4B1A70084A0B4B1A60FFF719FF00F083FA08BD0004FA050CED00E014ED00E000000000010500000080FF1FBC76004021
:4005C000C080FF1F08ED00E0084B1B78DBB213F0200F06D0064A1078C0B213F01E0F02D17047002070470020704700BF6665004045650040034B1B7813F0040FFAD1024BD8
:40060000187070476465004047650040024B1878C0F34000704700BF83450040014B1B68D865704708ED00E04001C0B2014B1870704700BF07E400E08022014B1A607047B9
:4006400000E100E08022014B1A60704780E100E010B50446FFF7F6FF2046FFF7DFFF0720FFF7E2FFFFF7E8FF10BD00BF022807D0032809D001280AD10322054B1A707047FF
:400680000422034B1A7070470522014B1A707047CC80FF1F70B58AB000240AA901F8284D0122104600F0C8F802260AA901F8246D0122304600F0C0F803250AA901F8205DA3
:4006C0000122284600F0B8F80AA901F81C4D0122042000F0B1F80AA94B2301F8183D0122052000F0A9F80AA90E2301F8143D0122062000F0A1F80AA901F8104D01221C2024
:4007000000F09AF80AA901F80C4D01221D2000F093F80AA901F8086D0122122000F08CF80AA9332301F8043D0122204600F084F82846FFF79BFF0AB070BD00BFB1B108B572
:40074000A0F10A03052B10D8DFE803F003030C0C0C0C074B1B78934200D313461A4600F06BF808BD012200F067F808BD704700BFCC80FF1F08B5012000F0A4F808BD00BF70
:4007800008B500F0EBF808BD68B138B504460D46002000F097F82946204600F0BFF8012000F090F838BD704700B583B002A9702301F8013D0122072000F03EF803B05DF80C
:4007C00004FB00BF08B5642000F03CFA0B4B1B780BB900F035F9012000F04CF8002000F071F800F08FF800F093F8FFF7DDFFFFF751FF962000F03CFA08BD00BF7581FF1FBD
:4008000030B583B0012505FA00F0C4B2FFF7B8FF204302A901F8010D2A46072000F00CF803B030BD08B500F099F800F0700008BD08B500F0D1F808BDB0B500AF1346551CAC
:40084000083323F00703ADEB030D6C46ADEB030D40F02003684600F8013B00F0A9FB044B1B682A462146684698472078BD46B0BDD080FF1F08B510B900F0F0F808BD012065
:4008800000F0ECF808BD00BFF8B507460E461546FFF7CEFF0020FFF7EDFF00240BE0385D00F088F800F07AF810F0080FFAD000F08DF830550134AC42F1D30120FFF7DAFF4A
:4008C000F8BD00BF08B510B900F0D4F808BD012000F0D0F808BD00BF00B585B08DF8070004A9002301F8013D054B1B6801220DF1070098479DF80F0005B05DF804FB00BF5D
:40090000D080FF1F08B5E220FFF7E6FF08BD00BF08B5E120FFF7E0FF08BD00BFF8B500AF06460C4601F1080323F00703ADEB030D6D46ADEB030D61238DF80030064B1B68F0
:400940004A1C2946684698472246691C304600F02FFBBD46F8BD00BFD080FF1F08B5FF20FFF7BAFF08BD00BF08B500F0EDFA0A4A137843F0200313700332137843F0100352
:40098000137002F58072137843F01003137000F0DFFA00F07BF808BD94640040014B1878704700BF67640040014B1878704700BF67650040034B1B7813F0040FFAD0024B85
:4009C000187070476764004044640040014B1878704700BF5464004008B501E00A4B1B780A4B1B7813F0200FF8D100F0ADFA084B1A7842F001021A701A7802F0FE021A70C9
:400A000000F0A6FA08BD00BF54640040676500409464004008B50F22074B1A70FFF7DCFFFFF7BCFFFFF7C0FF0023044A137002F58072137008BD00BF84640040876400402E
:400A400008B5054B1B7823B9FFF7E4FF0122024B1A70FFF789FF08BD7581FF1F044A137803F0FB03800000F0040018431070704720510040044A137803F0FE0300F0010091
:400A800018431070704700BF30510040054A137843F0010313701032137843F001031370704700BFA24300400B4A7F2313708021517007E0DA0002F1804202F5F042013BB7
:400AC000DBB21370002BF5D1DB0003F1804303F5F04300221A707047D480FF1F172815D831B103010A495A5C42F020025A5405E0030107495A5C02F0DF025A540001044A87
:400B0000835C43F00103835400207047012070471070004017280BD80001064A835C03F0F103490001F00E011943815400207047012070471070004041F6FF73994201D1E1
:400B40004FF4005141F6FF739A4201D14FF40052172808D8C00000F1804000F5EC408180C280002070470120704700BF172805D8034B03EB001041720020704701207047C9
:400B80001070004017281BD810B4C00000F1804404F5EC44D201D2B201F07F01114321709DF804201201D2B203F00F03134363709DF8083003F00F03A3700020E07001E080
:400BC0000120704710BC704710B500F0BDF90A4B5B78182B0BD9084A1478013B5370E30003F1804303F5F0431B78137000E0FF2400F0AEF9204610BDD480FF1F10F0800F5A
:400C00000CD111F4704F0BD1C00000F1804000F5F04001808270C37000207047012070470120704710F0800F08D1C00000F1804000F5F0408180C280002070470120704784
:400C400001BE704710B5044605E0084B186800F073F9A4F50044B4F5004FF6D8034B586800FB04F000F068F910BD00BFDC80FF1F08B5034B1B7A00FB03F000F05DF908BD4B
:400C8000DC80FF1F084A137843F060031370A2F5A652133A137843F0040313701032137843F004031370704777580040054B1A7802F0FC021A701A7800F003001043187094
:400CC000704700BF5C58004008B50220FFF7EEFF08BD00BF08B5054B1B7823B90122034B1A70FFF7F1FFFFF7CDFF08BD7681FF1F70B54FF4804341F6FF720121084600F018
:400D000073F80C4E354605F8040BFFF75DFF0246094C207001231021FFF770FF45F68332A9B22078FFF77EFF21783078FFF71EFF70BD00BF7881FF1FEC80FF1F08B500F04A
:400D4000AFF8034B1B78FF2B01D1FFF7D1FF08BDEC80FF1F08B50121044B1878FFF7BEFE00F0B4F800F05EF808BD00BF7881FF1F08B5054B1B7D23B9FFF7E0FF0122024B27
:400D80001A75FFF7E7FF08BD7881FF1F38B500F00F05C0F30714B0F57F6F02D90020FFF74FFFFF2C08D0002318E00E4A1A44FF2111710133DBB200E000230F2BF5D938BD24
:400DC000C5F11002934203DA064A1A44147103E0044A1A44611C11710133DBB20F2BEFD938BD00BF7881FF1FF0B583B016461F460B4D00242C700194009423460A46014650
:400E00002046FFF7BFFE3A4631462878FFF794FE02212878FFF77EFE287803B0F0BD00BFED80FF1F054A137843F0080313701032137843F008031370704700BFA843004031
:400E4000054B1A7802F0FD021A701A7800F0020010431870704700BF2C580040064B1B78C3F3810303F19243063393F83831DBB2024A1370704700BF2C5800400B46004041
:400E800008B5064B1A7802F0F3021A701A7800F00C0010431870FFF7E1FF08BD2C58004008B50020074B187001331870064A137843F008031370FFF7E3FF0220FFF7C0FF9B
:400EC00008BD00BF2C5800409F5A0040054A137843F0020313701032137843F002031370704700BFA2430040014B1B681864704708ED00E04001C0B2014B1870704700BFE5
:400F000000E400E00122014B1A60704700E100E00122014B1A60704780E100E010B50446FFF7F6FF2046FFF7DFFF0720FFF7E2FFFFF7E8FF10BD00BF0230800803D000BFC4
:400F400001380046FCD17047EFF3108072B6704780F31088704700BF014B1868704700BF5081FF1F0E4B70B51E460E4C0025E41AA410A54204D056F8253098470135F8E706
:400F800001F0D8F9084B094C1E46E41AA4100025A54204D056F8253098470135F8E770BD4023000040230000402300004823000010B5431E0A44914204D011F8014B03F80E
:400FC000014FF8E710BD03460244934202D003F8011BFAE77047000000000000BAADC0FFEE0000006B9F010029C1FC006B9F0100E5783A0012A8C700607A06003F0BF300CB
:40100000607A0600CE7C3B00D184C70085660600F632F30085660600718D3C00C746C700494806006E6FF30049480600E9AC3D0056ECC60051520200A2A4040051520200B8
:40104000637F39005DB1C7001A61020035C204001A6102002B90380021A0C700DC6B0200B8D70400DC6B0200BFA937003E73C7005E7F06004301F3005E7F0600A4DE3E0017
:401080003172C6003D8702007A0E05003D870200D5CB36001F28C700F78A0200EF150500F78A020027F63500B2BAC60089E90600EE2CF20089E9060002284000D2D2C50068
:4010C00073AD0200E55A050073AD02009F2835003224C600692F07002DA1F100692F07001A9241005D04C50065DA0200CAB4050065DA02005B6334000459C500E6970700A3
:4011000033D0F000E6970700AF2E430063F3C30059160300B22C0600591603008DA633008D42C4005B240300B64806005B24030093F132000DA7C200DB0324004BF8B7000E
:40114000DB032400812C4500626DC20000000000000000000000000000000000000000000000000000000000000000000000000000000000000000000000000000000000EA
:40118000000000000000000000000000000000000000000000000000000000000000000000000000000000000000000000000000000000000000000000000000000000002F
:4011C00000000000000000000000000000000000000000000000000000000000000000000008000014D0010028A0030014D00100DFF6FE001A7DCE00424607007C73F100AB
:4012000042460700210901001A7DCE00074F07000F9E0E00074F0700E7E2FC00B44CCE00745307001859F10074530700191D0300B44CCE001064070021C80E001064070095
:40124000AEC9FA000EEACD00C27707007D10F100C2770700523605000EEACD002088070041100F0020880700EBA6F8002251CD00BAAD07008CA4F000BAAD070015590700F0
:401280002251CD00F0BC07002086F000F0BC0700DF8A0900E57ACC0054F90700A8F20F0054F907002175F600E57ACC00CB0708006AF0EF00CB070800C2D30B00755BCB0015
:4012C000CD5E08009BBD1000CD5E08003E2CF400755BCB002170080041E010002170080011BFF10002DEC9006EE708002431EE006EE70800EF400E0002DEC9008B050900DE
:40130000170B12008B0509000514EF0076D9C70074A4090019B7EC0074A40900FBEB100076D9C70093F1090026E3130093F10900B7E7EB0071E3C40030032B00A0F9A90041
:4013400030032B004918140071E3C4000000000000000000000000000000000000000000000000000000000000000000000000000000000000000000000000000000000082
:40138000000000000000000000000000000000000000000000000000000000000000000000000000000000000000000000000000000000000000000000000000000000002D
:4013C000000000000000000000000000000000000000000000000000000000000000000000080000F7A0FF007B8FFF009F7DFF006A6BFF00E858FF002146FF002133FF005F
:40140000F21FFF009E0CFF0032F9FE00B8E5FE003CD2FE00C9BEFE006BABFE002E98FE001D85FE004372FE00AE5FFE00674DFE007A3BFE00F329FE00DC18FE004008FE00B1
:401440002BF8FD00A5E8FD00B9D9FD0070CBFD00D5BDFD00EEB0FD00C5A4FD006299FD00CC8EFD000A85FD00227CFD001A74FD00F76CFD00BF66FD007461FD001B5DFD00A1
:40148000B659FD004857FD00D255FD0055557D00D255FD004857FD00B659FD001B5DFD007461FD00BF66FD00F76CFD001A74FD00227CFD000A85FD00CC8EFD006299FD00A3
:4014C000C5A4FD00EEB0FD00D5BDFD0070CBFD00B9D9FD00A5E8FD002BF8FD004008FE00DC18FE00F329FE007A3BFE00674DFE00AE5FFE004372FE001D85FE002E98FE0012
:401500006BABFE00C9BEFE003CD2FE00B8E5FE0032F9FE009E0CFF00F21FFF002133FF002146FF00E858FF006A6BFF009F7DFF007B8FFF00F7A0FF00000000000000000003
:40154000000000000000000000000000000000000000000000000000000000000000000000000000000000000000000000000000000000000000000000000000000000006B
:40158000000000000000000000000000000000000000000000000000000000000000000000000000000000000000000000000000000000000000000000000000000000002B
:4015C0000000000000000000000000000000000000000000000000000000000000000000000000007D790200070DFB007D7902000CE96100F783C600C5A9090075ACEC00D2
:40160000C5A909008C296100286AC6008E360900E592ED008E360900A08D6000A017C6000B820800EBFBEE000B820800281B6000FA7FC500A64401004D890200A644010030
:4016400067CA6200B06BC6000D4201001B8402000D42010085CD6300EA22C6003619090095CDED003619090023DF5F00B188C4000E6201001DC402000E620100C7F66400EB
:4016800008A8C500FC550100F8AB0200FC5501003F4F66004CF3C4006B420100D68402006B420100B2EA6700D9F2C30083100D00FADEE50083100D0041FB5F00D1ECC20015
:4016C00052A80500A4500B0052A8050056FF69003474C2000000000000000000000000000000000000000000000000000000000000000000000000000000000000000000C5
:4017000000000000000000000000000000000000000000000000000000000000000000000000000000000000000000000000000000000000000000000000000000000000A9
:401740000000000000000000000000000000000000000000000000000000000000000000000000000000000000000000000000000000000000000000000000000000000069
:401780000000000000000000000000000000000000000000000000000000000000000000000000000000000000000000000000000000000000000000000000000000000029
:4017C000000000000000000000000000000000000000000000000000000000000000000000080000201300256117802601008026E00E8026C20C8026020080066587186DC3
:401800006409183E00008026032080262102187F000000000000000000000000000000000000000000000000000000000000000000000000000000000000000000000000BC
:401840000000000000000000000000000000000000000000000000000000000000000000000000000000000000000000000000000000000000000000000000000000000068
:401880000000000000000000000000000000000000000000000000000000000000000000000000000000000000000000000000000000000000000000000000000000000028
:4018C0000000000000000000000000000000000000000000000000000000000000000000000000009BAF00005B61000000000000A799FF00E93DFF008EFBFE0044DEFE00D7
:40190000ADECFE001427FF000B87FF0000000000C2800000D9F500004A4C010083740100E7640100AB1B0100A99F0000000000007552FF00C1B0FE002035FE007BF6FD0055
:40194000D204FE004266FE003415FF00000000001A0A0100D00E020043E50200336503000A6C03008AE1020081BB010000000000C8C5FD00C532FB00B878F80068D0F500E7
:40198000DD73F3004E98F1007868F000000070007868F0004E98F100DD73F30068D0F500B878F800C532FB00C8C5FD000000000081BB01008AE102000A6C03003365030054
:4019C00043E50200D00E02001A0A0100000000003415FF004266FE00D204FE007BF6FD002035FE00C1B0FE007552FF0000000000A99F0000AB1B0100E764010083740100AD
:401A00004A4C0100D9F50000C2800000000000000B87FF001427FF00ADECFE0044DEFE008EFBFE00E93DFF00A799FF00000000005B6100009BAF000000000000000000008C
:401A40000000000000000000000000000000000000000000000000000000000000000000000000000000000000000000000000000000000000000000000000000000000066
:401A80000000000000000000000000000000000000000000000000000000000000000000000000000000000000000000000000000000000000000000000000000000000026
:401AC0000000000000000000000000000000000000000000000000000000000000000000000000009BAF000039FC0000D3E1000059660000F5B8FF005A20FF0044DEFE00AF
:401B00009213FF009AB0FF00F5780000481A0100964D0100D9F50000F22E0000BE45FF00199BFE00807CFE000402FF000000000012140100F4C90100E0CA0100C20401000C
:401B400058B8FF004266FE00B39FFD0070CBFD00E6F5FE00D4C00000897C02003365030045F00200F50D01007F44FE00E196FB00B23AFA00C532FB00B6EFFE00CC1705004A
:401B8000238C0C007CAD13009DCD1800ABAA1A009DCD18007CAD1300238C0C00CC170500B6EFFE00C532FB00B23AFA00E196FB007F44FE00F50D010045F002003365030059
:401BC000897C0200D4C00000E6F5FE0070CBFD00B39FFD004266FE0058B8FF00C2040100E0CA0100F4C9010012140100000000000402FF00807CFE00199BFE00BE45FF002B
:401C0000F22E0000D9F50000964D0100481A0100F57800009AB0FF009213FF0044DEFE005A20FF00F5B8FF0059660000D3E1000039FC00009BAF00000000000000000000DE
:401C40000000000000000000000000000000000000000000000000000000000000000000000000000000000000000000000000000000000000000000000000000000000064
:401C80000000000000000000000000000000000000000000000000000000000000000000000000000000000000000000000000000000000000000000000000000000000024
:401CC000000000000000000000000000000000000000000000000000000000000000000000000000F7A0FF007B8FFF009F7DFF006A6BFF00E858FF002146FF002133FF005E
:401D0000F21FFF009E0CFF0032F9FE00B8E5FE003CD2FE00C9BEFE006BABFE002E98FE001D85FE004372FE00AE5FFE00674DFE007A3BFE00F329FE00DC18FE004008FE00A8
:401D40002BF8FD00A5E8FD00B9D9FD0070CBFD00D5BDFD00EEB0FD00C5A4FD006299FD00CC8EFD000A85FD00227CFD001A74FD00F76CFD00BF66FD007461FD001B5DFD0098
:401D8000B659FD004857FD00D255FD0055557D00D255FD004857FD00B659FD001B5DFD007461FD00BF66FD00F76CFD001A74FD00227CFD000A85FD00CC8EFD006299FD009A
:401DC000C5A4FD00EEB0FD00D5BDFD0070CBFD00B9D9FD00A5E8FD002BF8FD004008FE00DC18FE00F329FE007A3BFE00674DFE00AE5FFE004372FE001D85FE002E98FE0009
:401E00006BABFE00C9BEFE003CD2FE00B8E5FE0032F9FE009E0CFF00F21FFF002133FF002146FF00E858FF006A6BFF009F7DFF007B8FFF00F7A0FF000000000000000000FA
:401E40000000000000000000000000000000000000000000000000000000000000000000000000000000000000000000000000000000000000000000000000000000000062
:401E80000000000000000000000000000000000000000000000000000000000000000000000000000000000000000000000000000000000000000000000000000000000022
:401EC00000000000000000000000000000000000000000000000000000000000000000000000000052070000F4080000070B0000AF0D00000C110000411500006D1A0000C5
:401F0000AF20000021280000DE300000FA3A00008746000091530000216200003B720000DA830000F996000089AB000078C10000ACD8000009F100006A0A0100A82401004D
:401F4000963F0100055B0100BF7601008F9201003CAE01008AC901003FE401001FFE0100EF160200752E02007B440200CB580200356B02008B7B0200A589020060950200EE
:401F80009F9E02004AA5020052A90200ABAA020052A902004AA502009F9E020060950200A58902008B7B0200356B0200CB5802007B440200752E0200EF1602001FFE0100EF
:401FC0003FE401008AC901003CAE01008F920100BF760100055B0100963F0100A82401006A0A010009F10000ACD8000078C1000089AB0000F9960000DA8300003B72000029
:40200000216200009153000087460000FA3A0000DE30000021280000AF2000006D1A0000411500000C110000AF0D0000070B0000F4080000520700000000000000000000F5
:402040000000000000000000000000000000000000000000000000000000000000000000000000000000000000000000000000000000000000000000000000000000000060
:402080000000000000000000000000000000000000000000000000000000000000000000000000000000000000000000000000000000000000000000000000000000000020
:4020C000000000000000000000000000000000000000000000000000000000000000000000000000AD110000DA1300000E16000027180000DF190000CE1A00006D1A00006B
:40210000271800005B130000770B000000000000A9F0FF0063DDFF006DC6FF0061ACFF003890FF005173FF006657FF00883EFF00092BFF00651FFF00251EFF00C329FF006D
:402140007F44FF004370FF007CAEFF0000000000F2640000B3DC0000D56501001FFE010094A202008A4F0300C300040096B104001B5D050055FE050070900600E90E070085
:40218000C4750700B7C107004DF00700000008004DF00700B7C10700C4750700E90E07007090060055FE05001B5D050096B10400C30004008A4F030094A202001FFE0100F4
:4021C000D5650100B3DC0000F2640000000000007CAEFF004370FF007F44FF00C329FF00251EFF00651FFF00092BFF00883EFF006657FF005173FF003890FF0061ACFF0028
:402200006DC6FF0063DDFF00A9F0FF0000000000770B00005B130000271800006D1A0000CE1A0000DF190000271800000E160000DA130000AD1100000000000000000000F1
:40224000000000000000000000000000000000000000000000000000000000000000000000000000000000000000000000000000000000000000000000000000000000005E
:40228000000000000000000000000000000000000000000000000000000000000000000000000000000000000000000000000000000000000000000000000000000000001E
:4022C000000000000000000000000000000000000000000000000000000000000000000000000000405100403000C0510040100000000140000480040140800B0014014092
:40230000800000150140000700400140000A004C014000020050014020000000000401409C0400488000801401401C050048800043000000F8B500BFF8BC08BC9E467047C8
:402340004D0000005D050000F8B500BFF8BC08BC9E4670472900000068230000C880FF1F90000000400000000000000005000000890800007F800000010000000000E02EA1
:40238000C05D00001800000000366E01FFFF0000000000000000000000000000000000000000000000000000000000000000000030230000000000000000000000000000F2
:4023C000000000000000000000000000000000000000000000000000000000000000000000000000000000000000000000000000F080FF1F0000000000000000000000004F
:40240000000000000000000000000000000000000000000000000000000000000000000000000000000000000000000000000000000000000000000000000000000000009C
:40244000000000000000000000000000000000000000000000000000000000000000000000000000000000000000000000000000000000000000000000000000000000005C
:40248000000000000000000000000000000000000000000000000000000000000000000000000000000000000000000000000000000000000000000000000000000000001C
:4024C00000000000000000000000000000000000000000000000000000000000000000000000000000000000000000000000000000000000000000000000000000000000DC
:020000040003F7
:0200000480007A
:400000000145004003520040015A00400264004002650040180401403D050140500601403907014001090140020B014010140140521501404D16014048170140011B01407E
:40004000044001400241014002420140024301400645014005460140044701400748014008490140014C0140024D014004500140025101401902101019801C409F01840FFC
:400080008672840F86388503870C880E94059505963A970A98239A049D029E109F0DA004A239AD09AF06B10FB40FB630B820BB02D804D904DF010010010203020510084852
:4000C00009480A410B040D080E020F041028110112021480181419401A801D101E0220082108221223042440278028802A402F023040310832123408378039553F04408450
:4001000041084302480449064B8052546040682869556A4072018B409410A810C04BC2EFC41FCA19CC5FCE4FD007D20CD801EC01110319011B02240125012702280129039A
:400140002C0131023201350139023F1056025711580459045B045C225D205F01808D811484118622870389308A808B0C8C428D2C8E088F11900D9280946295409614991CA0
:400180009B229C029D099E0D9F10A040A48DA510A88DAC8DB070B31FB480B60FB760B980BA82BE10C004C504C9FFCA07CBFFCC40CD20CEF0CF05D008D409D804D904DA04A4
:4001C000DB04DC20DD02DF01E040E1A8E240E320000801110204030208080A411028118012401302154017141A011B121D0821842310261129082F143180321836223810DC
:4002000039883B0140404908520859255A805E2061406D406F147480760877209004910192C0980899449A54A02CA140A702B601C00FC20DC4EFCA62CCAECE0FD001D62F4C
:40024000D808E810E680EC010002060208021004140126022A023002320436013E45540158045B045D205F01001A04080580068408010B900C800D080E040F80103012083E
:40028000148015041720180119041A401C201F1424082540262027412C842E842F023480360237243A043B083C203D043E0A3F804508460447454D804E02550157085811BF
:4002C00059045A4078047A208340848087108C01901092049390940897289A0A9B209C809E04A0A5A108A20AA302A541A620A748A910AA80AE12C0FEC2FCC476CAF0CCF08C
:40030000CEF0D0F0D210D60FE610EC20002602C00301060608060F02104A12311301160618941A28220624F828F82B022C0630E0320133013418350236063B023F145418AF
:400340005604580459045B045C225D205F018003840285188720880389588BA58D588FA3976999969B619F86A702AA01B003B33CB5C3B707B802BBA8BE01C036C105C5BC1B
:40038000C60EC807C9FFCAFFCBFFCEF0CF44D00CD440D804D904DA04DB04DC20DD02DF01E6C0EA40EB02001A040805010604080809040D080E040F80120814801754184016
:4003C0001D011E251F02201A2140221025142602274029082F08318032183601381039803B043D82401048214A084B0553405E0162906320640865026680850293109450C4
:4004000095809620972999089A189B34A080A188A289A310A622A804A901AD10AE80B120B302C07EC270C4F2CA22CC8ECE9ED002D20CD680D8BEEC2033803F40CC10CE20DD
:400440009740A7809740A7809740A7800D0452205C02C204D404D601890491089C02AA20E6013020B402CC08E8082080234087809740A780C840E6100920620481208E0425
:40048000B040C240D840E020A420B020EC0400050A0510051A05000310020000609A0000009800020102009856980902043880C00A2110D807133864849A000084FC000343
:4004C00084000000800004000402000008E07F0F801302000800000A000051003406200005BEFC0D1FFFFFFF2200F008040000000000022C04040404000000010000C00021
:4005000040011011C00100114001400100000000000000000000000000000000030000040C08130013270C181F040080013F00000000132302180000081C00210F101000D2
:40054000040000800C3C00020000004000C00F001C1F0038000028200000000123050400010000EC30FFFFFF62A0F0410C000000000000000404040022020001000000002C
:40058000000040020010301000101012000000000000000000000000000000000000000000000200000B0B0000000000201E1E0018000000820040838100800000000000A5
:4005C00000000000000000000000000000000000000000000000000000000000000000000000000000000000000000000000000000000000000000000000000000000000FB
:4006000000000000000000000000000000000000000000000000000000000000000000000000000000000000000000000000000000000000000000000000000000000000BA
:40064000000000000000000000000000000000000000000000000000000000000000000000000000000000000000000000000000000000000000000000000000000000007A
:40068000000000000000000000000000000000000000000000000000000000000000000000000000000000000000000000000000000000000000000000000000000000003A
:0200000490006A
:0400000000004005B7
:0200000490105A
:04000000BC90ACAF55
:0200000490303A
:02000000DC47DB
:0200000490402A
:4000000000000000000000000000000000000000000000000000000000000000000000000000000000000000000000000000000000000000000000000000000000000000C0
:400040000000000000000000000000000000000000000000000000000000000000000000000000000000000000000000000000000000000000000000000000000000000080
:400080000000000000000000000000000000000000000000000000000000000000000000000000000000000000000000000000000000000000000000000000000000000040
:4000C0000000000000000000000000000000000000000000000000000000000000000000000000000000000000000000000000000000000000000000000000000000000000
:0200000490501A
:0C00000000012E16106900012E21ECB04A
:00000001FF